:020000040000FA
:100000000C9476000C949E000C949E000C949E0020
:100010000C949E000C949E000C949E000C949E00E8
:100020000C949E000C949E000C949E000C949E00D8
:100030000C949E000C949E000C949E000C949E00C8
:100040000C944B050C949E000C9419050C94F3042D
:100050000C949E000C949E000C949E000C949E00A8
:100060000C949E000C949E0007634236B79BD8A761
:100070001A39685618AEBAAB558C1D3CB7CC5763CD
:10008000BD6DEDFD753EF6177231BF000000803F7B
:1000900008000000BE922449123EABAAAA2ABECD97
:1000A000CCCC4C3E00000080BEABAAAAAA3E000009
:1000B0000000BF000000803F000000000008417801
:1000C000D3BB4387D1133D190E3CC3BD4282AD2B38
:1000D0003E68EC8276BED98FE1A93E4C80EFFFBE30
:1000E00001C4FF7F3F0000000000BA0511241FBEBD
:1000F000CFEFD8E0DEBFCDBF11E0A0E0B1E0ECE48F
:10010000F8E102C005900D92A231B107D9F724E0C1
:10011000A2E1B1E001C01D92A136B207E1F710E003
:10012000C6E7D0E004C02197FE010E941E0CC5372F
:10013000D107C9F70E9471060C94240C0C9400009E
:10014000AF92BF92CF92DF92EF92FF920F931F93E5
:10015000CF93DF936C017B018B01040F151FEB0123
:100160005E01AE18BF08C017D10759F06991D601DA
:10017000ED91FC910190F081E02DC6010995892B4C
:1001800079F7C501DF91CF911F910F91FF90EF900B
:10019000DF90CF90BF90AF900895FC01538D448DB8
:1001A000252F30E0842F90E0821B930B541710F022
:1001B000CF96089501970895FC01918D828D98172F
:1001C00061F0A28DAE0FBF2FB11D5D968C91928D07
:1001D0009F5F9F73928F90E008958FEF9FEF089538
:1001E000FC01918D828D981731F0828DE80FF11D01
:1001F000858D90E008958FEF9FEF0895FC01918D1C
:10020000228D892F90E0805C9F4F821B91098F7314
:100210009927089582EC93E00E94FE0021E0892B4B
:1002200009F420E0822F089580E090E0892B29F0E6
:100230000E940A0181110C9400000895FC01A48D14
:10024000A80FB92FB11DA35ABF4F2C91848D90E0F8
:1002500001968F739927848FA689B7892C93A089DB
:10026000B1898C91837080648C93938D848D981365
:1002700006C00288F389E02D80818F7D80830895F8
:10028000EF92FF920F931F93CF93DF93EC0181E0E6
:10029000888F9B8D8C8D98131AC0E889F98980818D
:1002A00085FF15C09FB7F894EE89FF896083E889C0
:1002B000F98980818370806480839FBF81E090E0B2
:1002C000DF91CF911F910F91FF90EF900895F62E3F
:1002D0000B8D10E00F5F1F4F0F731127E02E8C8DD9
:1002E0008E110CC00FB607FCFACFE889F98980811E
:1002F00085FFF5CFCE010E941E01F1CFEB8DEC0FF3
:10030000FD2FF11DE35AFF4FF0829FB7F8940B8F3A
:10031000EA89FB8980818062CFCFCF93DF93EC01A4
:10032000888D8823B9F0AA89BB89E889F9898C91DD
:1003300085FD03C0808186FD0DC00FB607FCF7CF99
:100340008C9185FFF2CF808185FFEDCFCE010E9499
:100350001E01E9CFDF91CF9108953FB7F8948091C6
:10036000180190911901A0911A01B0911B0126B5B5
:10037000A89B05C02F3F19F00196A11DB11D3FBFDD
:10038000BA2FA92F982F8827BC01CD01620F711DAC
:10039000811D911D42E0660F771F881F991F4A95A6
:1003A000D1F708958F929F92AF92BF92CF92DF9232
:1003B000EF92FF926B017C010E94AD014B015C0149
:1003C000C114D104E104F104B9F00E94AD0168192F
:1003D00079098A099B09683E73408105910580F37C
:1003E00021E0C21AD108E108F10888EE880E83E006
:1003F000981EA11CB11CE4CFFF90EF90DF90CF902E
:10040000BF90AF909F908F9008952FB7F894609110
:1004100014017091150180911601909117012FBF61
:100420000895DC018D919C91DC01ED91FC9101908E
:10043000F081E02D09940F931F93CF93DF93082F42
:10044000162FC2EFD2E069E98AA59BA50E9411028E
:10045000602F8AA59BA50E941102612F6F778AA544
:100460009BA5DF91CF911F910F910C9411021F93C7
:10047000CF93DF93182FC2EFD2E069E88AA59BA53E
:100480000E941102612F8AA59BA50E94110260E0C3
:100490008AA59BA5DF91CF911F910C94110268E76B
:1004A00081E30E941B0281E30C94370264E68AE236
:1004B0000E941B028AE20C9437028F929F92AF92A5
:1004C000BF92CF92DF92EF92FF920F931F93CF9341
:1004D000DF93EC0188A58E3008F08E508770806421
:1004E00080937C0080917A00806480937A00809170
:1004F0007A0086FDFCCF9091780080917900892761
:10050000982789279BA78AA70BA1FAA0ECA0C8A0CF
:100510002AE0C29E600111241986C816D9062CF55E
:1005200088AD99AD892B09F50E9405026AAF7BAFB2
:100530008CAF9DAFFE01FE9680809180A280B3803B
:10054000681979098A099B0910E030E020E06017FA
:1005500071078207930708F472C08AA59BA5998347
:10056000888381E090E099AF88AF88AD99AD181687
:1005700019060CF064C02AA53BA548815981421791
:10058000530714F439832883019699AF88AF0E94EA
:1005900005020AAD1BAD2CAD3DADAB01BC01401B4E
:1005A000510B620B730B8F2D90E0B0E0A0E0481769
:1005B00059076A077B0708F442C08AE0E89EF00109
:1005C00011248DA128813981811146C00D2C000C88
:1005D000EE08FF08032E000C440B550B2C193D09A7
:1005E0004E095F09AEE7B0E00E941F089F01FF0FB0
:1005F000440B550B2C193D094E095F090E94000858
:100600002F5F3F4F4F4F5F4F2038310514F02FE7DA
:1006100030E01216130614F021E030E0398328830D
:1006200081E089870E940502FE01FE966083718346
:10063000828393838E898093120119AE18AEDF9165
:10064000CF911F910F91FF90EF90DF90CF90BF90CF
:10065000AF909F908F900895813009F07EC00D2C4F
:10066000000CEE08FF08032E000C440B550B2C1950
:100670003D094E095F09AEE7B0E00E941F089F01E7
:10068000FF0F440B550B2C193D094E095F090E94C1
:100690000008CA01B9016F5F7F4F8F4F9F4F0E94C3
:1006A00005096B017C0120E030E040E85FE30E9437
:1006B000C80818160CF043C020E030E04EEF52E4BA
:1006C000C701B6010E94B50918160CF43FC020E01E
:1006D00030E040E85FE3C701B6010E945B089B0180
:1006E000AC016CE57FE882E89FE30E94270A20E0E6
:1006F00030E040E85FE30E945B0824EC3DE345E323
:1007000051E40E94BA0920E030E040E85FE30E9433
:100710005C086B017C0120E030E0A9010E94B50972
:1007200020E030E040E05FE387FD3DC1C701B60156
:100730000E945C080E94CD08262F30E06FCFC12CAC
:10074000D12C70E8E72E7FE3F72EC1CFC12CD12C3E
:100750006EEFE62E62E4F62EBACF823009F05FC06B
:100760000D2C000CEE08FF08032E000C440B550B5B
:100770002C193D094E095F09AEE7B0E00E941F0841
:100780009F01FF0F440B550B2C193D094E095F09C2
:100790000E940008CA01B9016F5F7F4F8F4F9F4FC2
:1007A0000E9405096B017C0120E030E040E85FE336
:1007B0000E94C80818162CF520E030E04EEF52E4F5
:1007C000C701B6010E94B509181614F120E030E007
:1007D00040E85FE3C701B6010E945B089B01AC01E2
:1007E00066E676E686E89FE30E94270A20E030E08E
:1007F00040E85FE30E945B0820E934E44AE85EE3F6
:1008000080CFC12CD12C50E8E52E5FE3F52EDECF52
:10081000C12CD12C4EEFE42E42E4F42ED7CF8330FE
:1008200009F05FC00D2C000CEE08FF08032E000C31
:10083000440B550B2C193D094E095F09AEE7B0E09A
:100840000E941F089F01FF0F440B550B2C193D09F7
:100850004E095F090E940008CA01B9016F5F7F4F0E
:100860008F4F9F4F0E9405096B017C0120E030E013
:1008700040E85FE30E94C80818162CF520E030E03D
:100880004EEF52E4C701B6010E94B509181614F1E3
:1008900020E030E040E85FE3C701B6010E945B085A
:1008A0009B01AC0168E471EE8AE79FE30E94270A8E
:1008B00020E030E040E85FE30E945B082BE239EB88
:1008C00048E053EC1ECFC12CD12C30E8E32E3FE39F
:1008D000F32EDECFC12CD12C2EEFE22E22E4F22E0D
:1008E000D7CF843009F064C00D2C000CEE08FF084F
:1008F000032E000C440B550B2C193D094E095F09C2
:10090000AEE7B0E00E941F089F01FF0F440B550B9C
:100910002C193D094E095F090E940008CA01B9015E
:100920006F5F7F4F8F4F9F4F0E9405096B017C01C6
:1009300020E030E040E85FE30E94C80818162CF57C
:1009400020E030E04EEF52E4C701B6010E94B50945
:10095000181614F120E030E040E85FE3C701B6016B
:100960000E945B089B01AC0163E373E383E79FE3B1
:100970000E94270A20E030E040E85FE30E945B0825
:100980002EEC34E64CEF52ECBCCEC12CD12C90E8CE
:10099000E92E9FE3F92EDECFC12CD12C8EEFE82E6D
:1009A00082E4F82ED7CFC701B6010E945B08C2CE01
:1009B00030E020E033CE84EA92E00E945D0286E5DA
:1009C00092E00E945D0288E092E00E945D028AEB64
:1009D00091E00E945D028CE691E00E945D028EE152
:1009E00091E00C945D021F920F920FB60F921124AA
:1009F0002F933F934F935F936F937F938F939F9327
:100A0000AF93BF93EF93FF9382EC93E00E941E019C
:100A1000FF91EF91BF91AF919F918F917F916F91D6
:100A20005F914F913F912F910F900FBE0F901F90AC
:100A300018951F920F920FB60F9211242F938F9338
:100A40009F93EF93FF93E091D203F091D3038081C2
:100A5000E091D803F091D90382FD1BC09081809171
:100A6000DB038F5F8F732091DC03821741F0E091ED
:100A7000DB03F0E0EE53FC4F958F8093DB03FF9197
:100A8000EF919F918F912F910F900FBE0F901F901C
:100A900018958081F4CF1F920F920FB60F921124F8
:100AA0002F933F938F939F93AF93BF9380911401A4
:100AB00090911501A0911601B09117013091130189
:100AC00023E0230F2D3758F50196A11DB11D20936A
:100AD00013018093140190931501A0931601B09314
:100AE00017018091180190911901A0911A01B091FC
:100AF0001B010196A11DB11D80931801909319014E
:100B0000A0931A01B0931B01BF91AF919F918F9158
:100B10003F912F910F900FBE0F901F90189526E8D0
:100B2000230F0296A11DB11DD2CFFC0117821086A2
:100B300012861386118A81E0828B138A11AE10AE61
:100B400060A784E684A38AE080A382A38EE183A3C6
:100B500084E187A383E086A315A286E2878B87E2E0
:100B6000808F88E2818F80911201868B8F5F8093C6
:100B700012010895E2ECF3E01382128288EE93E012
:100B8000A0E0B0E084839583A683B78384E091E0FE
:100B90009183808385EC90E09587848784EC90E056
:100BA0009787868780EC90E0918B808B81EC90E03A
:100BB000938B828B82EC90E0958B848B86EC90E01B
:100BC000978B868B118E128E138E148EF093600489
:100BD000E0935F04E2EFF2E011821082138212824E
:100BE0001582148217821682118610861386128649
:100BF0001586148617861686118A108A138A128A19
:100C0000158A148A178A168A118E108E138E128EE8
:100C1000158E148E178E168E11A210A213A212A278
:100C200015A214A217A216A211A610A68FE594E091
:100C300093A782A714A615A616A613AA12AA15AAE8
:100C400014AA8FEF9FEF97AB86AB91AF80AF83E095
:100C500080932C0313AE14AE15AE16AE1092B103F2
:100C6000E1E3F3E080E8DF011D928A95E9F7109255
:100C7000B4031092B5031092B6031092B70310920A
:100C8000B8031092B9031092BA031092BB031092EA
:100C9000BC031092BD031092BE031092BF031092CA
:100CA000C0031092C10360E084EA92E00E949505BF
:100CB00061E086E592E00E94950562E088E092E0BE
:100CC0000E94950563E08AEB91E00E94950564E03F
:100CD0008CE691E00E94950565E08EE191E00C9430
:100CE0009505789484B5826084BD84B5816084BDA7
:100CF00085B5826085BD85B5816085BD80916E00BA
:100D0000816080936E0010928100809181008260EA
:100D10008093810080918100816080938100809127
:100D200080008160809380008091B1008460809316
:100D3000B1008091B00081608093B00080917A0012
:100D4000846080937A0080917A00826080937A0038
:100D500080917A00816080937A0080917A00806827
:100D600080937A001092C100E0911C03F0911D0362
:100D70000190F081E02DA089B18982E08C93A48557
:100D8000B5851C92A685B7858FE38C93108EA489B8
:100D9000B58986E08C93A289B3898C9180618C930C
:100DA000A289B3898C9188608C93A289B3898C9134
:100DB00080688C930288F389E02D80818F7D808309
:100DC0008AE080931E031092200310921F0310925A
:100DD00027031092260310922503109224038FEF0D
:100DE0009FEF909329038093280390932B03809384
:100DF0002A030E9405026093B4037093B5038093A5
:100E0000B6039093B7031092B10310922E03109281
:100E10002D0310922F03109230031092B3031092FF
:100E2000B20380912C0381708260816080932C03D7
:100E3000C0E0D0E00E94DB048091AD02882341F045
:100E40006091A40283E20E941B0283E20E943702A7
:100E500080915F02882341F06091560286E20E94F1
:100E60001B0286E20E94370280911102882341F022
:100E7000609108028EE20E941B028EE20E943702FD
:100E80008091C301882341F06091BA018FE20E94F2
:100E90001B028FE20E94370280917501882341F086
:100EA00060916C018BE20E941B028BE20E94370270
:100EB00080912701882341F060911E0181E30E9407
:100EC0001B0281E30E94370280911C0190911D0159
:100ED000181619060CF489C06CE386E20E941B0206
:100EE00086E20E94370264EF71E080E090E00E94A9
:100EF000D2010E94560268EE73E080E090E00E940A
:100F0000D2010E94560268EE73E080E090E00E94F9
:100F1000D2010E94560268EE73E080E090E00E94E9
:100F2000D2010E94560268EE73E080E090E00E94D9
:100F3000D2010E9405026B017C0110E00E94DB04DB
:100F40008091AD02882341F06091A40283E20E9467
:100F50001B0283E20E94370200915F02002349F0E6
:100F60006091560286E20E941B0286E20E943702CE
:100F7000102F80911102882341F0609108028EE2C7
:100F80000E941B028EE20E94370280912701882373
:100F900041F060911E0181E30E941B0281E30E94E7
:100FA00037020E9405026C197D098E099F09613A7A
:100FB0007F408105910510F268EE73E080E090E0DB
:100FC000111106C00E944F0264EF71E080E090E0D2
:100FD0000E94D2010E944F0280911C0190911D013C
:100FE000019690931D0180931C01209709F422CF54
:100FF0000E940A01882309F41DCF0E9400001ACF25
:10100000052E97FB1EF400940E94170857FD07D089
:101010000E942A0807FC03D04EF40C941708509540
:101020004095309521953F4F4F4F5F4F08959095D4
:101030008095709561957F4F8F4F9F4F08950E94C7
:101040004C08A59F900DB49F900DA49F800D911DFD
:1010500011240895A1E21A2EAA1BBB1BFD010DC08D
:10106000AA1FBB1FEE1FFF1FA217B307E407F50758
:1010700020F0A21BB30BE40BF50B661F771F881F34
:10108000991F1A9469F760957095809590959B01CA
:10109000AC01BD01CF010895A29FB001B39FC00173
:1010A000A39F700D811D1124911DB29F700D811D94
:1010B0001124911D08955058BB27AA270E94730838
:1010C0000C947B090E946D0938F00E94740920F08D
:1010D00039F49F3F19F426F40C946A090EF4E09554
:1010E000E7FB0C946409E92F0E948C0958F3BA17A6
:1010F000620773078407950720F079F4A6F50C942E
:10110000AE090EF4E0950B2EBA2FA02D0B01B901FC
:1011100090010C01CA01A0011124FF27591B99F06D
:10112000593F50F4503E68F11A16F040A22F232F79
:10113000342F4427585FF3CF469537952795A795C9
:10114000F0405395C9F77EF41F16BA0B620B730B70
:10115000840BBAF09150A1F0FF0FBB1F661F771FE1
:10116000881FC2F70EC0BA0F621F731F841F48F496
:10117000879577956795B795F7959E3F08F0B0CF1F
:101180009395880F08F09927EE0F97958795089506
:101190000E94400908F481E008950E94D4086894F0
:1011A000B1110C94AF0908950E94940988F09F57DB
:1011B00098F0B92F9927B751B0F0E1F0660F771F7B
:1011C000881F991F1AF0BA95C9F714C0B13091F071
:1011D0000E94AE09B1E008950C94AE09672F782FF4
:1011E0008827B85F39F0B93FCCF386957795679536
:1011F000B395D9F73EF490958095709561957F4FA2
:101200008F4F9F4F0895E89409C097FB3EF4909547
:101210008095709561957F4F8F4F9F4F9923A9F0CF
:10122000F92F96E9BB279395F6958795779567955E
:10123000B795F111F8CFFAF4BB0F11F460FF1BC0A2
:101240006F5F7F4F8F4F9F4F16C0882311F096E935
:1012500011C0772321F09EE8872F762F05C06623E3
:1012600071F096E8862F70E060E02AF09A95660F9C
:10127000771F881FDAF7880F9695879597F9089555
:10128000990F0008550FAA0BE0E8FEEF1616170697
:10129000E807F907C0F012161306E407F50798F0FF
:1012A000621B730B840B950B39F40A2661F0232B18
:1012B000242B252B21F408950A2609F4A140A69594
:1012C0008FEF811D811D089597F99F6780E870E079
:1012D00060E008959FEF80EC089500240A941616AC
:1012E000170618060906089500240A941216130614
:1012F000140605060895092E0394000C11F48823A2
:1013000052F0BB0F40F4BF2B11F460FF04C06F5FBD
:101310007F4F8F4F9F4F089557FD9058440F551F93
:1013200059F05F3F71F04795880F97FB991F61F067
:101330009F3F79F087950895121613061406551FDE
:10134000F2CF4695F1DF08C0161617061806991F4A
:10135000F1CF86957105610508940895E894BB273F
:1013600066277727CB0197F908950E94400908F472
:101370008FEF08950E94CD090C947B090E946D099E
:1013800038F00E94740920F0952311F00C94640940
:101390000C946A0911240C94AF090E948C0970F313
:1013A000959FC1F3950F50E0551F629FF001729F0A
:1013B000BB27F00DB11D639FAA27F00DB11DAA1F19
:1013C000649F6627B00DA11D661F829F2227B00D66
:1013D000A11D621F739FB00DA11D621F839FA00DF1
:1013E000611D221F749F3327A00D611D231F849F41
:1013F000600D211D822F762F6A2F11249F57504098
:101400009AF0F1F088234AF0EE0FFF1FBB1F661F12
:10141000771F881F91505040A9F79E3F510580F0DB
:101420000C9464090C94AF095F3FE4F3983ED4F345
:10143000869577956795B795F795E7959F5FC1F77F
:10144000FE2B880F911D9695879597F90895FA01BF
:10145000EE0FFF1F309621053105A1F161157105D1
:1014600061F48038BFE39B0749F1689490388105A7
:1014700061F08038BFEF9B0741F099234AF5FF3FA9
:10148000E1053105210519F1E8940894E795D901A2
:10149000AA2329F4AB2FBE2FF85FD0F310C0FF5F53
:1014A00070F4A695E0F7F73950F019F0FF3A38F4E8
:1014B0009F779F930DD00F9007FC9058089546F0AA
:1014C0000C946A0960E070E080E89FE308954FE7BC
:1014D0009F775F934F933F932F930E94220B2F91FF
:1014E0003F914F915F910E94BA090C947F0A29F4B1
:1014F00016F00C9464090C94AE090C946A090E94CD
:101500009409A8F39638A0F707F80F92E8942BE314
:101510003AEA48EB5FE70E94D0090F920F920F92D0
:101520004DB75EB70F920E946A0BE8E6F0E00E94AA
:10153000B10A4F915F91EF91FF91E595EE1FFF1F6B
:1015400049F0FE57E0684427EE0F441FFA95E1F793
:101550004195550B0E94E40A0F9007FE0C94D80A9F
:101560000895DF93CF931F930F93FF92EF92DF9233
:101570007B018C01689406C0DA2EEF010E94CD0930
:10158000FE01E894A5912591359145915591A6F3D9
:10159000EF010E947308FE019701A801DA9469F730
:1015A000DF90EF90FF900F911F91CF91DF91089501
:1015B0009B01AC0160E070E080E89FE30C949E0B1F
:1015C0000C9464090C94100C0E949409D8F399238C
:1015D000C9F3940F511DA3F39150504094F059F06A
:1015E000882332F0660F771F881F91505040C1F753
:1015F0009E3F51052CF7880F911D9695879597F979
:1016000008955F3FACF0983E9CF0BB278695779598
:101610006795B79508F4B1609395C1F7BB0F58F77C
:1016200011F460FFE8CF6F5F7F4F8F4F9F4FE3CF85
:101630000C94AF0916F00C94100C0C946A09689481
:101640000C9464090E949409A8F39923C1F3AEF3A2
:10165000DF93CF931F930F93FF92C92FDD2788232A
:101660002AF02197660F771F881FDAF720E030E015
:1016700040E85FEB9FE3883920F0803E38F0219608
:101680008F770E945C08E0E9F0E004C00E945C08EB
:10169000EDEBF0E00E94B10A8B01BE01EC01FB2EE4
:1016A0006F5771097595771F880B990B0E94050973
:1016B00028E132E741E35FE30E94CD09AF2D9801B5
:1016C000AE01FF900F911F91CF91DF910E9473089F
:1016D0000C947B09FA01DC01AA0FBB1F9B01AC0132
:1016E000BF5728F4222733274427507820C0B7510A
:1016F00090F4AB2F0024469537952795011CA395B0
:10170000D2F3002071F0220F331F441FB395DAF398
:101710000ED00C945B0861307105A0E88A07B946C9
:1017200030F49B01AC0166277727882790783096A4
:1017300021F0208331834283538308950E94B20BAA
:101740000C947B090E94740958F00E946D0940F0C6
:1017500029F45F3F29F00C94640951110C94AF09EE
:101760000C946A090E948C0968F39923B1F35523FC
:1017700091F3951B550BBB27AA27621773078407A4
:1017800038F09F5F5F4F220F331F441FAA1FA9F33A
:1017900035D00E2E3AF0E0E832D091505040E69528
:1017A000001CCAF72BD0FE2F29D0660F771F881F89
:1017B000BB1F261737074807AB07B0E809F0BB0B7C
:1017C000802DBF01FF2793585F4F3AF09E3F510590
:1017D00078F00C9464090C94AF095F3FE4F3983EF1
:1017E000D4F3869577956795B795F7959F5FC9F779
:1017F000880F911D9695879597F90895E1E0660FFA
:10180000771F881FBB1F621773078407BA0720F072
:10181000621B730B840BBA0BEE1F88F7E0950895DB
:101820009F3F31F0915020F4879577956795B79554
:10183000880F911D9695879597F90895EE0FFF1FD4
:101840000590F491E02D0994F894FFCF000000007A
:0E1850004001A000CD008D01FE00DC00F00084
:107E0000112484B714BE81FFF0D085E080938100F7
:107E100082E08093C00088E18093C10086E0809377
:107E2000C20080E18093C4008EE0C9D0259A86E02C
:107E300020E33CEF91E0309385002093840096BBD3
:107E4000B09BFECF1D9AA8958150A9F7CC24DD24C4
:107E500088248394B5E0AB2EA1E19A2EF3E0BF2EE7
:107E6000A2D0813461F49FD0082FAFD0023811F036
:107E7000013811F484E001C083E08DD089C08234E0
:107E800011F484E103C0853419F485E0A6D080C0E4
:107E9000853579F488D0E82EFF2485D0082F10E0AE
:107EA000102F00270E291F29000F111F8ED06801E7
:107EB0006FC0863521F484E090D080E0DECF843638
:107EC00009F040C070D06FD0082F6DD080E0C81688
:107ED00080E7D80618F4F601B7BEE895C0E0D1E017
:107EE00062D089930C17E1F7F0E0CF16F0E7DF06D8
:107EF00018F0F601B7BEE89568D007B600FCFDCFD4
:107F0000A601A0E0B1E02C9130E011968C91119780
:107F100090E0982F8827822B932B1296FA010C0160
:107F200087BEE89511244E5F5F4FF1E0A038BF0790
:107F300051F7F601A7BEE89507B600FCFDCF97BE46
:107F4000E89526C08437B1F42ED02DD0F82E2BD052
:107F50003CD0F601EF2C8F010F5F1F4F84911BD097
:107F6000EA94F801C1F70894C11CD11CFA94CF0C13
:107F7000D11C0EC0853739F428D08EE10CD085E9AC
:107F80000AD08FE07ACF813511F488E018D01DD067
:107F900080E101D065CF982F8091C00085FFFCCF94
:107FA0009093C60008958091C00087FFFCCF809118
:107FB000C00084FD01C0A8958091C6000895E0E648
:107FC000F0E098E1908380830895EDDF803219F02E
:107FD00088E0F5DFFFCF84E1DECF1F93182FE3DFCA
:107FE0001150E9F7F2DF1F91089580E0E8DFEE27F6
:047FF000FF270994CA
:027FFE00040479
:00000001FF
